:020000040000FA
:06000000D7EF04F012002E
:020006000000F8
:08000800D9CFE6FFE1CFD9FFDB
:10001000040EE126DE6ADD6A020EDB6A030EDB6A8D
:10002000700ED36EC00E9B6E38EC04F027DA34D914
:1000300088D90001F26BDE6ADD6ADECF00F0DDCF29
:1000400001F0D890015004E6100E005C270E015814
:100050001DE2020EDB6A030EDB6A020EDBCF00F04C
:10006000030EDBCF01F0D890015004E6640E005C73
:10007000000E015806E2020EDB2A030E01E3DB2A22
:10008000ECD7DF2A010E01E3DB2AD7D7DE6ADD6A6F
:1000900035DA42D9C6D964D90001F10508E16CDB33
:1000A0000300400EA06E400EF26EA16AEAD0020E6E
:1000B0000001D35D01E0E5D0EAC0ECF0EBC0EDF06B
:1000C000E8C0EAF0E9C0EBF0E6C0E8F0E7C0E9F02C
:1000D000E4C0E6F0E5C0E7F0E2C0E4F0E3C0E5F03C
:1000E000E0C0E2F0E1C0E3F0DEC0E0F0DFC0E1F04C
:1000F000DCC0DEF0DDC0DFF0DAC0DCF0DBC0DDF05C
:10010000D8C0DAF0D9C0DBF0D6C0D8F0D7C0D9F06B
:10011000D4C0D6F0D5C0D7F00001D2510001D46FC1
:10012000D56B00010001EC510001EA25146E0001BD
:100130000001ED510001EB21156E14500001E8257E
:10014000126E15500001E921136E12500001E625D0
:10015000106E13500001E721116E10500001E425CC
:100160000E6E11500001E5210F6E0E500001E225C8
:100170000C6E0F500001E3210D6E0C500001E025C4
:100180000A6E0D500001E1210B6E0A500001DE25C0
:10019000086E0B500001DF21096E08500001DC25BC
:1001A000066E09500001DD21076E06500001DA25B8
:1001B000046E07500001DB21056E04500001D825B4
:1001C000026E05500001D921036E02500001D625B0
:1001D000006E03500001D721016E00500001D425AC
:1001E0000001EE6F01500001D5210001EF6FEEC05C
:1001F000EEF0EFC0EFF00D0E236E246AEEC01EF09D
:10020000EFC01FF08BEC04F01EC0EEF01FC0EFF04B
:1002100008D90001F25132E1DE6ADD6A0001EF35F2
:1002200004E2EE518408000EEF5512E2EEC0EEF04B
:10023000EFC0EFF000010B0EEE5F000EEF5BDFCFC3
:10024000E6FF5ADAE552DF2A010E01E3DB2AE6D7A0
:10025000DECF00F0DDCF01F0D890015004E60A0EA9
:10026000005C000E015809E2DFCFE6FF65DAE552D7
:10027000DF2A010E01E3DB2AEBD701D07DDA000192
:10028000D36B06D7040EE15C02E2E16AE552E16E4F
:10029000E552E7CFD9FF1200D9CFE6FFE1CFD9FF72
:1002A000020EE126DE6ADD6A7E809280C16A170E48
:1002B000C06E010EC26E0001D26BD36BDE6ADD6AC6
:1002C000DECF00F0DDCF01F0D890015004E60D0E36
:1002D000005C000E015812E2DECFE9FFDDCFEAFF3D
:1002E000D890E936EA36D40EE926000EEA22EE6A04
:1002F000ED6ADF2A010E01E3DB2AE2D70001EE6B93
:10030000EF6BF06B020EE15C02E2E16AE552E16E36
:10031000E552E7CFD9FF12000001D35109E1F02BDC
:10032000050EF05D04E1C282010ED36FF06B08D0C0
:10033000D30506E1C2B204D0020ED36FC4CFD2F00F
:1003400012009282B00EBA6EC80EBB6E1C0EBC6E4E
:10035000940E6D6E400EA06EF26E0001F16B1200F5
:10036000D9CFE6FFE1CFD9FF020EE126DE6ADD6AD2
:100370000001F15126E16DBC23D0010EF16F300E6A
:10038000BA6E480EBB6E140E6D6EDE6ADD6ADECF8D
:1003900000F0DDCF01F0D890015004E6640E005C5F
:1003A000000E015805E2DF2A010E01E3DB2AEFD738
:1003B000B00EBA6EC80EBB6E1F0EBC6E940E6D6E84
:1003C00026D0400E6D14400822E1F16B300EBA6E5B
:1003D000480EBB6E140E6D6EDE6ADD6ADECF00F075
:1003E000DDCF01F0D890015004E6640E005C000EF1
:1003F000015805E2DF2A010E01E3DB2AEFD7B00E38
:10040000BA6EC80EBB6E1C0EBC6E940E6D6E020EE4
:10041000E15C02E2E16AE552E16EE552E7CFD9FF25
:1004200012000001D251006E016A0150D919E8AEE4
:1004300002D0D93504D0D851005CD951015813E20B
:10044000910EEFAF02D0D89003D0EE5D000EEF59C1
:1004500009E2D13504E2D051E808030ED15502E299
:10046000010EF26F0AD0EF3504E2EE51AF08000E34
:10047000EF5503E2F26BD06BD16B1200D9CFE6FFE0
:10048000E1CFD9FF020EE126DE6ADD6A0001CE6B04
:10049000CF6BD06BD16BDE6ADD6ADECF00F0DDCFD3
:1004A00001F0D890015004E60A0E005C000E0158DD
:1004B0001BE2DECFE9FFDDCFEAFFD890E936EA366E
:1004C000B00EE926000EEA22EE6AED6ADECFE9FF01
:1004D000DDCFEAFFC40EE926000EEA22EF6ADF2A2A
:1004E000010E01E3DB2AD9D7020EE15C02E2E16AE8
:1004F000E552E16EE552E7CFD9FF1200D9CFE6FF12
:10050000E1CFD9FF020EE126DE6ADD6A0001F205C5
:1005100001E158D0DE6ADD6ADECF00F0DDCF01F008
:10052000D890015004E60A0E005C000E015837E234
:10053000DECFE9FFDDCFEAFFD890E936EA36B00E2C
:10054000E926000EEA22EECF00F0EFCF01F0000125
:100550000150CF19E8AE02D0CF3504D0CE51005CA7
:10056000CF51015813E3DECFE9FFDDCFEAFFD8908A
:10057000E936EA36B00EE926000EEA22EE50ED101A
:1005800005E0DFCFE6FF0ED9E55204D0DFCFE6FF6E
:100590003CD9E552DF2A010E01E3DB2ABDD7010E6B
:1005A0000001CE25CE6F000ECF21CF6FFF0ECE19EA
:1005B00001E1CF5106E1CE6BCF6BD02B000ED123E2
:1005C0000BD800D0020EE15C02E2E16AE552E16E76
:1005D000E552E7CFD9FF1200D9CFE6FFE1CFD9FF2F
:1005E000020EE126DE6ADD6ADE6ADD6ADECF00F039
:1005F000DDCF01F0D890015004E60A0E005C000E39
:10060000015870E2DECFE9FFDDCFEAFFC40EE92634
:10061000000EEA22EF50030A37E0010A0FE0030A56
:1006200008E0010A01E059D0DFCFE6FFEED8E5523D
:1006300054D0DFCFE6FFB6D8E5524FD0DECFE9FF8A
:10064000DDCFEAFFD890E936EA36B00EE926000E93
:10065000EA22EE50ED1009E1DECFE9FFDDCFEAFF3F
:10066000C40EE926000EEA22EF6ADECFE9FFDDCFF5
:10067000EAFFD890E936EA36B00EE926000EEA2203
:10068000EE06000EEF5A29D0DECFE9FFDDCFEAFFFC
:10069000D890E936EA36B00EE926000EEA22FF0EBF
:1006A000EE1801E1ED500AE1DECFE9FFDDCFEAFF10
:1006B000C40EE926000EEA22010EEF6EDECFE9FF3E
:1006C000DDCFEAFFD890E936EA36B00EE926000E13
:1006D000EA22EE2A000EEF2200D0DF2A010E01E30B
:1006E000DB2A84D7020EE15C02E2E16AE552E16EA8
:1006F000E552E7CFD9FF1200D9CFE6FFE1CFD9FF0E
:10070000FE0EDBCFE9FFEA6AE9BEEA68C40EE9261D
:10071000000EEA22EF040CE0FE0EDBCFE9FFEA6AEE
:10072000E9BEEA68C40EE926000EEA22030EEF6E67
:10073000E552E7CFD9FF1200D9CFE6FFE1CFD9FFCD
:10074000FE0EDBCFE9FFEA6AE9BEEA68C40EE926DD
:10075000000EEA22EF500CE0FE0EDBCFE9FFEA6A62
:10076000E9BEEA68C40EE926000EEA22020EEF6E28
:10077000E552E7CFD9FF12008B908B928B948B9828
:100780008B9A8B9C8B9E8A988A9A8A9C12008B806B
:100790008B828B848B888B8A8B8C8B8E8A888A8ABF
:1007A0008A8C1200D9CFE6FFE1CFD9FFFE0EDB50D5
:1007B000090A25E0010A21E00F0A1DE0010A19E0FB
:1007C000030A15E0010A11E0070A0DE0010A09E039
:1007D000030A05E0010A01E014D08B8012D08B825D
:1007E00010D08B840ED08B880CD08B8A0AD08B8C47
:1007F00008D08B8E06D08A8804D08A8A02D08A8C50
:1008000000D0E552E7CFD9FF1200D9CFE6FFE1CF04
:10081000D9FFFE0EDB50090A25E0010A21E00F0A8C
:100820001DE0010A19E0030A15E0010A11E0070AB8
:100830000DE0010A09E0030A05E0010A01E014D015
:100840008B9012D08B9210D08B940ED08B980CD0B2
:100850008B9A0AD08B9C08D08B9E06D08A9804D0A5
:100860008A9A02D08A9C00D0E552E7CFD9FF1200C5
:08087000946A936ABCEF03F0E7
:08087800060EF66E000EF76E8D
:10088000000EF86E00010900F550F86F0900F550F0
:10089000F96F03E1F86701D03DD00900F550F36F1F
:1008A0000900F550F46F0900F550F56F09000900D3
:1008B000F550E96E0900F550EA6E090009000900DB
:1008C000F550F66F0900F550F76F09000900F6CFF3
:1008D000FAF0F7CFFBF0F8CFFCF0F3C0F6FFF4C06E
:1008E000F7FFF5C0F8FF0001F65302E1F75307E008
:1008F0000900F550EE6EF607F8E2F707F9D7FAC0EF
:10090000F6FFFBC0F7FFFCC0F8FF0001F807000E80
:06091000F95BBFD71200E5
:0A091600166A24AE94EF04F0236C7F
:10092000241EE86A2422161E1FAE9CEF04F01E6CE3
:100930001F1EE86A1F22161EB1EC04F01FBEACEFAA
:1009400004F016AE000C1E6C1F1EE86A1F221A6C03
:100950001B1EE86A1B22000C16BEA3EF04F01788CA
:02096000FF0C8A
:0E0962001B6A1A6A100EE76ED8901E361F36FA
:100970001A361B3623501A5C24501B5805E32350AB
:0E0980001A5E24501B5A1E2AE72EF0D71200D2
:02098E00000E59
:10099000F36E00EE00F0010E01D81200EA6002D002
:0E09A000EE6AFCD7F350E9601200EE6AFCD755
:0209AE0010EE49
:1009B00060F020EE60F0F86A179C3CEC04F0E5EC87
:0A09C00004F004EC00F0FBD7120075
:0209CA00120019
:00000001FF
